{
  "transactions": [
    {
      "hash": "0x4a317e6fc67890b1f9ae541b69af90c1874fcb64e48753cfd5098dbda6b7f61e",
      "transactionType": "CALL",
      "contractName": null,
      "contractAddress": "0x5fbdb2315678afecb367f032d93f642f64180aa3",
      "function": "emitCrossChainMessage(bytes)",
      "arguments": [
        "0x48656c6c6f2c204f6e2d436861696e205369676e696e67"
      ],
      "transaction": {
        "from": "0x70997970c51812dc3a010c7d01b50e0d17dc79c8",
        "to": "0x5fbdb2315678afecb367f032d93f642f64180aa3",
        "gas": "0x86c2",
        "value": "0x16345785d8a0000",
        "input": "0x97fdd0f90000000000000000000000000000000000000000000000000000000000000020000000000000000000000000000000000000000000000000000000000000001748656c6c6f2c204f6e2d436861696e205369676e696e67000000000000000000",
        "nonce": "0x3",
        "chainId": "0x1691"
      },
      "additionalContracts": [],
      "isFixedGasLimit": false
    }
  ],
  "receipts": [
    {
      "status": "0x1",
      "cumulativeGasUsed": "0x6190",
      "logs": [
        {
          "address": "0x5fbdb2315678afecb367f032d93f642f64180aa3",
          "topics": [
            "0x898a694e492e88e6e9dca12a1eecfe36e73cdd6b6a61af22720ba9177b59318e"
          ],
          "data": "0x000000000000000000000000000000000000000000000000000000000000002000000000000000000000000000000000000000000000000000000000000000020000000000000000000000000000000000000000000000000000000000000060000000000000000000000000000000000000000000000000016345785d8a0000000000000000000000000000000000000000000000000000000000000000001748656c6c6f2c204f6e2d436861696e205369676e696e67000000000000000000",
          "blockHash": "0xca5dfde1dfac46c64d168bdf9af5c9882c4423b5d91706e2372a561ce79dc7ec",
          "blockNumber": "0x5",
          "blockTimestamp": "0x67cf8610",
          "transactionHash": "0x4a317e6fc67890b1f9ae541b69af90c1874fcb64e48753cfd5098dbda6b7f61e",
          "transactionIndex": "0x0",
          "logIndex": "0x0",
          "removed": false
        }
      ],
      "logsBloom": "0x00000000000000000000000000000000000000000000000000000000000000000000000000000000000000000000000000000000000000000000000000000000000000000000000000000000000000000000000000000000000000000000000400000040000000000000000000000000000000000000000000000000000000000000100000000000000000000000000000000000000000000020000200000000000000000000000000000000000000000000000000000000000000000000000000000040000000000000000000000000000000000000000000000000000000000000000000000000000000000000000000000000000000000000000000000000",
      "type": "0x2",
      "transactionHash": "0x4a317e6fc67890b1f9ae541b69af90c1874fcb64e48753cfd5098dbda6b7f61e",
      "transactionIndex": "0x0",
      "blockHash": "0xca5dfde1dfac46c64d168bdf9af5c9882c4423b5d91706e2372a561ce79dc7ec",
      "blockNumber": "0x5",
      "gasUsed": "0x6190",
      "effectiveGasPrice": "0x2314e816",
      "blobGasPrice": "0x1",
      "from": "0x70997970c51812dc3a010c7d01b50e0d17dc79c8",
      "to": "0x5fbdb2315678afecb367f032d93f642f64180aa3",
      "contractAddress": null,
      "root": "0xd63408f8988f808f0d23f26a3155f240df4444dde37fcab3661ebf7f9f79eca8"
    }
  ],
  "libraries": [],
  "pending": [],
  "returns": {},
  "timestamp": 1741653520,
  "chain": 5777,
  "commit": "d82b33a"
}