{
  "transactions": [
    {
      "hash": "0x0fd1a246cc1a50d01957f3f72034923f2597b144bbc26a8c8b6dfbcee7a49d6b",
      "transactionType": "CALL",
      "contractName": null,
      "contractAddress": "0xe7f1725e7734ce288f8367e1bb143e90bb3f0512",
      "function": "emitCrossChainMessage(bytes)",
      "arguments": [
        "0x48656c6c6f2c204f6e2d436861696e205369676e696e6721"
      ],
      "transaction": {
        "from": "0x70997970c51812dc3a010c7d01b50e0d17dc79c8",
        "to": "0xe7f1725e7734ce288f8367e1bb143e90bb3f0512",
        "gas": "0x86d1",
        "value": "0x16345785d8a0000",
        "input": "0x97fdd0f90000000000000000000000000000000000000000000000000000000000000020000000000000000000000000000000000000000000000000000000000000001848656c6c6f2c204f6e2d436861696e205369676e696e67210000000000000000",
        "nonce": "0x2",
        "chainId": "0x1691"
      },
      "additionalContracts": [],
      "isFixedGasLimit": false
    }
  ],
  "receipts": [
    {
      "status": "0x1",
      "cumulativeGasUsed": "0x619c",
      "logs": [
        {
          "address": "0xe7f1725e7734ce288f8367e1bb143e90bb3f0512",
          "topics": [
            "0x898a694e492e88e6e9dca12a1eecfe36e73cdd6b6a61af22720ba9177b59318e"
          ],
          "data": "0x000000000000000000000000000000000000000000000000000000000000002000000000000000000000000000000000000000000000000000000000000000020000000000000000000000000000000000000000000000000000000000000060000000000000000000000000000000000000000000000000016345785d8a0000000000000000000000000000000000000000000000000000000000000000001848656c6c6f2c204f6e2d436861696e205369676e696e67210000000000000000",
          "blockHash": "0x284340d5bb3f2699db582e70b6572fd562ba6c1316c847f4799c85118e801927",
          "blockNumber": "0x5",
          "blockTimestamp": "0x67cf1caa",
          "transactionHash": "0x0fd1a246cc1a50d01957f3f72034923f2597b144bbc26a8c8b6dfbcee7a49d6b",
          "transactionIndex": "0x0",
          "logIndex": "0x0",
          "removed": false
        }
      ],
      "logsBloom": "0x00000000000000000000000000000000000000000000000000000000000000000000000000000000000000000000000010000000000000000000000000000000000000000000000000000000000000000000000000000000000000000000000400000000000000000000000000000000000000000000000000000000000000000000100000000000000000000000000000000000000000000020000000000000000000000000000000000000000000000000000000000000000000000000000000000000000000000000000000001000000000000000000000000000000000000000000000000000000000000000000000000000000000800000000000000000",
      "type": "0x2",
      "transactionHash": "0x0fd1a246cc1a50d01957f3f72034923f2597b144bbc26a8c8b6dfbcee7a49d6b",
      "transactionIndex": "0x0",
      "blockHash": "0x284340d5bb3f2699db582e70b6572fd562ba6c1316c847f4799c85118e801927",
      "blockNumber": "0x5",
      "gasUsed": "0x619c",
      "effectiveGasPrice": "0x233140e6",
      "blobGasPrice": "0x1",
      "from": "0x70997970c51812dc3a010c7d01b50e0d17dc79c8",
      "to": "0xe7f1725e7734ce288f8367e1bb143e90bb3f0512",
      "contractAddress": null,
      "root": "0x65b2d11d883417dbd2b4049b8ebd31e2871fd5098e0a5ca48e407e7c5b5aa80c"
    }
  ],
  "libraries": [],
  "pending": [],
  "returns": {},
  "timestamp": 1741626538,
  "chain": 5777,
  "commit": "968a56de"
}