{
  "transactions": [
    {
      "hash": "0x6b627ad3da8fc8888f7106385de1ab9f8f876a2a34dc2719a59ffcb9bc54e423",
      "transactionType": "CALL",
      "contractName": null,
      "contractAddress": "0x5fbdb2315678afecb367f032d93f642f64180aa3",
      "function": "emitCrossChainMessage(bytes)",
      "arguments": [
        "0x48656c6c6f2c204f6e2d436861696e205369676e696e67"
      ],
      "transaction": {
        "from": "0x70997970c51812dc3a010c7d01b50e0d17dc79c8",
        "to": "0x5fbdb2315678afecb367f032d93f642f64180aa3",
        "gas": "0x8376",
        "value": "0x16345785d8a0000",
        "input": "0x97fdd0f90000000000000000000000000000000000000000000000000000000000000020000000000000000000000000000000000000000000000000000000000000001748656c6c6f2c204f6e2d436861696e205369676e696e67000000000000000000",
        "nonce": "0x0",
        "chainId": "0x1691"
      },
      "additionalContracts": [],
      "isFixedGasLimit": false
    }
  ],
  "receipts": [
    {
      "status": "0x1",
      "cumulativeGasUsed": "0x5f2e",
      "logs": [
        {
          "address": "0x5fbdb2315678afecb367f032d93f642f64180aa3",
          "topics": [
            "0x28dd1f19a19627378d65c5200ed717aed45de1bfc83be2461b6f7cfa6533c3c9"
          ],
          "data": "0x00000000000000000000000000000000000000000000000000000000000000200000000000000000000000000000000000000000000000000000000000000020000000000000000000000000000000000000000000000000000000000000001748656c6c6f2c204f6e2d436861696e205369676e696e67000000000000000000",
          "blockHash": "0x0eaf7b82335985cc777a9799ae5152a77243380236460f18c9d92662ed6f9f28",
          "blockNumber": "0x2",
          "blockTimestamp": "0x67dfbb58",
          "transactionHash": "0x6b627ad3da8fc8888f7106385de1ab9f8f876a2a34dc2719a59ffcb9bc54e423",
          "transactionIndex": "0x0",
          "logIndex": "0x0",
          "removed": false
        }
      ],
      "logsBloom": "0x00000000000000000000000000000000000000000000000000000000000000000000000000000000000000000400000000000000000000000000000000000000000000000000000000000000000000000000000000000000000000000000000000000040000000000000000000000000000000000000000000000000000000000000000000000000000000000000000000000000000000000000000200000000000000000000000000000000000000000000000000000000000000000000000000000040000000000000000000000000000000000000800800000000000000000000000000000000000000000000000000000000000000000000000000000000",
      "type": "0x2",
      "transactionHash": "0x6b627ad3da8fc8888f7106385de1ab9f8f876a2a34dc2719a59ffcb9bc54e423",
      "transactionIndex": "0x0",
      "blockHash": "0x0eaf7b82335985cc777a9799ae5152a77243380236460f18c9d92662ed6f9f28",
      "blockNumber": "0x2",
      "gasUsed": "0x5f2e",
      "effectiveGasPrice": "0x345388be",
      "blobGasPrice": "0x1",
      "from": "0x70997970c51812dc3a010c7d01b50e0d17dc79c8",
      "to": "0x5fbdb2315678afecb367f032d93f642f64180aa3",
      "contractAddress": null,
      "root": "0xa2d4b319105258b18c42abb05d9ce95bbf369307bd6d5f85223610dbf3b8f688"
    }
  ],
  "libraries": [],
  "pending": [],
  "returns": {},
  "timestamp": 1742715736,
  "chain": 5777,
  "commit": "782667b"
}