{
  "transactions": [
    {
      "hash": "0x0910da4beed5c40133ab87762fd50880642de63da2f44433e10fb3055557dee0",
      "transactionType": "CALL",
      "contractName": null,
      "contractAddress": "0xe7f1725e7734ce288f8367e1bb143e90bb3f0512",
      "function": "emitCrossChainMessage(bytes)",
      "arguments": [
        "0x48656c6c6f2c204f6e2d436861696e205369676e696e6721"
      ],
      "transaction": {
        "from": "0x70997970c51812dc3a010c7d01b50e0d17dc79c8",
        "to": "0xe7f1725e7734ce288f8367e1bb143e90bb3f0512",
        "gas": "0x86d1",
        "value": "0x16345785d8a0000",
        "input": "0x97fdd0f90000000000000000000000000000000000000000000000000000000000000020000000000000000000000000000000000000000000000000000000000000001848656c6c6f2c204f6e2d436861696e205369676e696e67210000000000000000",
        "nonce": "0x0",
        "chainId": "0x1691"
      },
      "additionalContracts": [],
      "isFixedGasLimit": false
    }
  ],
  "receipts": [
    {
      "status": "0x1",
      "cumulativeGasUsed": "0x619c",
      "logs": [
        {
          "address": "0xe7f1725e7734ce288f8367e1bb143e90bb3f0512",
          "topics": [
            "0x898a694e492e88e6e9dca12a1eecfe36e73cdd6b6a61af22720ba9177b59318e"
          ],
          "data": "0x000000000000000000000000000000000000000000000000000000000000002000000000000000000000000000000000000000000000000000000000000000020000000000000000000000000000000000000000000000000000000000000060000000000000000000000000000000000000000000000000016345785d8a0000000000000000000000000000000000000000000000000000000000000000001848656c6c6f2c204f6e2d436861696e205369676e696e67210000000000000000",
          "blockHash": "0xe3ad82856f9f22842d4111dc1cc224c0ce74cb313baa98efb25de7026993f483",
          "blockNumber": "0x3",
          "blockTimestamp": "0x67cf1c75",
          "transactionHash": "0x0910da4beed5c40133ab87762fd50880642de63da2f44433e10fb3055557dee0",
          "transactionIndex": "0x0",
          "logIndex": "0x0",
          "removed": false
        }
      ],
      "logsBloom": "0x00000000000000000000000000000000000000000000000000000000000000000000000000000000000000000000000010000000000000000000000000000000000000000000000000000000000000000000000000000000000000000000000400000000000000000000000000000000000000000000000000000000000000000000100000000000000000000000000000000000000000000020000000000000000000000000000000000000000000000000000000000000000000000000000000000000000000000000000000001000000000000000000000000000000000000000000000000000000000000000000000000000000000800000000000000000",
      "type": "0x2",
      "transactionHash": "0x0910da4beed5c40133ab87762fd50880642de63da2f44433e10fb3055557dee0",
      "transactionIndex": "0x0",
      "blockHash": "0xe3ad82856f9f22842d4111dc1cc224c0ce74cb313baa98efb25de7026993f483",
      "blockNumber": "0x3",
      "gasUsed": "0x619c",
      "effectiveGasPrice": "0x2df196ea",
      "blobGasPrice": "0x1",
      "from": "0x70997970c51812dc3a010c7d01b50e0d17dc79c8",
      "to": "0xe7f1725e7734ce288f8367e1bb143e90bb3f0512",
      "contractAddress": null,
      "root": "0x47183272e418af58ddd214b07ff325b20c69d181263ec6a6bdb02bf7343d82ba"
    }
  ],
  "libraries": [],
  "pending": [],
  "returns": {},
  "timestamp": 1741626485,
  "chain": 5777,
  "commit": "968a56de"
}