{
  "transactions": [
    {
      "hash": "0x94af4757b50139e9bbbebe351d79c803c53ac1e8235afa67db46946633fa6fc7",
      "transactionType": "CALL",
      "contractName": null,
      "contractAddress": "0x9e8123cd548f36f6e9a806f9a6346cf246e940bd",
      "function": "emitCrossChainMessage(bytes)",
      "arguments": [
        "0x48656c6c6f2c204f6e2d436861696e205369676e696e67"
      ],
      "transaction": {
        "from": "0x70997970c51812dc3a010c7d01b50e0d17dc79c8",
        "to": "0x9e8123cd548f36f6e9a806f9a6346cf246e940bd",
        "gas": "0x83b6",
        "value": "0x0",
        "input": "0x97fdd0f90000000000000000000000000000000000000000000000000000000000000020000000000000000000000000000000000000000000000000000000000000001748656c6c6f2c204f6e2d436861696e205369676e696e67000000000000000000",
        "nonce": "0x1",
        "chainId": "0x1691"
      },
      "additionalContracts": [],
      "isFixedGasLimit": false
    }
  ],
  "receipts": [
    {
      "status": "0x1",
      "cumulativeGasUsed": "0x5f5c",
      "logs": [
        {
          "address": "0x9e8123cd548f36f6e9a806f9a6346cf246e940bd",
          "topics": [
            "0x28dd1f19a19627378d65c5200ed717aed45de1bfc83be2461b6f7cfa6533c3c9"
          ],
          "data": "0x00000000000000000000000000000000000000000000000000000000000000200000000000000000000000000000000000000000000000000000000000000020000000000000000000000000000000000000000000000000000000000000001748656c6c6f2c204f6e2d436861696e205369676e696e67000000000000000000",
          "blockHash": "0xdb230d220e40cf67ee50c6e5b815e51bb24c8924bab5f79b4f392c59a2eb1c43",
          "blockNumber": "0x9",
          "blockTimestamp": "0x67ea6909",
          "transactionHash": "0x94af4757b50139e9bbbebe351d79c803c53ac1e8235afa67db46946633fa6fc7",
          "transactionIndex": "0x0",
          "logIndex": "0x0",
          "removed": false
        }
      ],
      "logsBloom": "0x00000000000000000000000000000000000000000000000000000000000000000000000000000000000000000400000000000000200000000000000000000000000000000000000000000000000000000000000000000000000000000008000000000000000000000000000000000000000000000000000000000000000000000000000000000000000000000000000000000000000000000000000000000000000000000000000000000000000000000000000000000000000000000000000000000000000000000000000000000000000000000000800800000000000000000000000000000000000000000000020000000000000000000000000000000000",
      "type": "0x2",
      "transactionHash": "0x94af4757b50139e9bbbebe351d79c803c53ac1e8235afa67db46946633fa6fc7",
      "transactionIndex": "0x0",
      "blockHash": "0xdb230d220e40cf67ee50c6e5b815e51bb24c8924bab5f79b4f392c59a2eb1c43",
      "blockNumber": "0x9",
      "gasUsed": "0x5f5c",
      "effectiveGasPrice": "0x980d75aa",
      "blobGasPrice": "0x1",
      "from": "0x70997970c51812dc3a010c7d01b50e0d17dc79c8",
      "to": "0x9e8123cd548f36f6e9a806f9a6346cf246e940bd",
      "contractAddress": null,
      "root": "0x3b5beed692fc8a559b629ec87f567c267e4802e332fe13f896be4737fe8178b3"
    }
  ],
  "libraries": [],
  "pending": [],
  "returns": {},
  "timestamp": 1743415561,
  "chain": 5777,
  "commit": "290da53"
}