{
  "transactions": [
    {
      "hash": "0x3f785313d7e7d469fc5728ae576a577d65d867283331f2bf63e1a49ab01f45ce",
      "transactionType": "CALL",
      "contractName": null,
      "contractAddress": "0x5fbdb2315678afecb367f032d93f642f64180aa3",
      "function": "emitCrossChainMessage(bytes)",
      "arguments": [
        "0x48656c6c6f2c204f6e2d436861696e205369676e696e67"
      ],
      "transaction": {
        "from": "0x70997970c51812dc3a010c7d01b50e0d17dc79c8",
        "to": "0x5fbdb2315678afecb367f032d93f642f64180aa3",
        "gas": "0x86c2",
        "value": "0x16345785d8a0000",
        "input": "0x97fdd0f90000000000000000000000000000000000000000000000000000000000000020000000000000000000000000000000000000000000000000000000000000001748656c6c6f2c204f6e2d436861696e205369676e696e67000000000000000000",
        "nonce": "0x0",
        "chainId": "0x1691"
      },
      "additionalContracts": [],
      "isFixedGasLimit": false
    }
  ],
  "receipts": [
    {
      "status": "0x1",
      "cumulativeGasUsed": "0x6190",
      "logs": [
        {
          "address": "0x5fbdb2315678afecb367f032d93f642f64180aa3",
          "topics": [
            "0x898a694e492e88e6e9dca12a1eecfe36e73cdd6b6a61af22720ba9177b59318e"
          ],
          "data": "0x000000000000000000000000000000000000000000000000000000000000002000000000000000000000000000000000000000000000000000000000000000020000000000000000000000000000000000000000000000000000000000000060000000000000000000000000000000000000000000000000016345785d8a0000000000000000000000000000000000000000000000000000000000000000001748656c6c6f2c204f6e2d436861696e205369676e696e67000000000000000000",
          "blockHash": "0x5b3c8cdbd268b090e5a378d375f67af8fde3127f3e337dfeb2a28c7e681876af",
          "blockNumber": "0x2",
          "blockTimestamp": "0x67d09b77",
          "transactionHash": "0x3f785313d7e7d469fc5728ae576a577d65d867283331f2bf63e1a49ab01f45ce",
          "transactionIndex": "0x0",
          "logIndex": "0x0",
          "removed": false
        }
      ],
      "logsBloom": "0x00000000000000000000000000000000000000000000000000000000000000000000000000000000000000000000000000000000000000000000000000000000000000000000000000000000000000000000000000000000000000000000000400000040000000000000000000000000000000000000000000000000000000000000100000000000000000000000000000000000000000000020000200000000000000000000000000000000000000000000000000000000000000000000000000000040000000000000000000000000000000000000000000000000000000000000000000000000000000000000000000000000000000000000000000000000",
      "type": "0x2",
      "transactionHash": "0x3f785313d7e7d469fc5728ae576a577d65d867283331f2bf63e1a49ab01f45ce",
      "transactionIndex": "0x0",
      "blockHash": "0x5b3c8cdbd268b090e5a378d375f67af8fde3127f3e337dfeb2a28c7e681876af",
      "blockNumber": "0x2",
      "gasUsed": "0x6190",
      "effectiveGasPrice": "0x3454561d",
      "blobGasPrice": "0x1",
      "from": "0x70997970c51812dc3a010c7d01b50e0d17dc79c8",
      "to": "0x5fbdb2315678afecb367f032d93f642f64180aa3",
      "contractAddress": null,
      "root": "0x1f97dfc77789b4001934ff320145aae49c97ae48eb449a9427b27b67f0e30c4d"
    }
  ],
  "libraries": [],
  "pending": [],
  "returns": {},
  "timestamp": 1741724535,
  "chain": 5777,
  "commit": "e830cef"
}