{
  "transactions": [
    {
      "hash": "0xaab7f5b362cca66146f66c2ee74da95af74e201777e2fd932f3a75d872a93797",
      "transactionType": "CALL",
      "contractName": null,
      "contractAddress": "0x9e8123cd548f36f6e9a806f9a6346cf246e940bd",
      "function": "emitCrossChainMessage(bytes)",
      "arguments": [
        "0x48656c6c6f2c204f6e2d436861696e205369676e696e67"
      ],
      "transaction": {
        "from": "0x70997970c51812dc3a010c7d01b50e0d17dc79c8",
        "to": "0x9e8123cd548f36f6e9a806f9a6346cf246e940bd",
        "gas": "0x83b6",
        "value": "0x0",
        "input": "0x97fdd0f90000000000000000000000000000000000000000000000000000000000000020000000000000000000000000000000000000000000000000000000000000001748656c6c6f2c204f6e2d436861696e205369676e696e67000000000000000000",
        "nonce": "0x0",
        "chainId": "0x1691"
      },
      "additionalContracts": [],
      "isFixedGasLimit": false
    }
  ],
  "receipts": [
    {
      "status": "0x1",
      "cumulativeGasUsed": "0x5f5c",
      "logs": [
        {
          "address": "0x9e8123cd548f36f6e9a806f9a6346cf246e940bd",
          "topics": [
            "0x28dd1f19a19627378d65c5200ed717aed45de1bfc83be2461b6f7cfa6533c3c9"
          ],
          "data": "0x00000000000000000000000000000000000000000000000000000000000000200000000000000000000000000000000000000000000000000000000000000020000000000000000000000000000000000000000000000000000000000000001748656c6c6f2c204f6e2d436861696e205369676e696e67000000000000000000",
          "blockHash": "0xcb76d6ec201ae1fc3be7d02ec643f1c2586377620bf03a5e91f5bc8742113a00",
          "blockNumber": "0x4",
          "blockTimestamp": "0x67ea66e3",
          "transactionHash": "0xaab7f5b362cca66146f66c2ee74da95af74e201777e2fd932f3a75d872a93797",
          "transactionIndex": "0x0",
          "logIndex": "0x0",
          "removed": false
        }
      ],
      "logsBloom": "0x00000000000000000000000000000000000000000000000000000000000000000000000000000000000000000400000000000000200000000000000000000000000000000000000000000000000000000000000000000000000000000008000000000000000000000000000000000000000000000000000000000000000000000000000000000000000000000000000000000000000000000000000000000000000000000000000000000000000000000000000000000000000000000000000000000000000000000000000000000000000000000000800800000000000000000000000000000000000000000000020000000000000000000000000000000000",
      "type": "0x2",
      "transactionHash": "0xaab7f5b362cca66146f66c2ee74da95af74e201777e2fd932f3a75d872a93797",
      "transactionIndex": "0x0",
      "blockHash": "0xcb76d6ec201ae1fc3be7d02ec643f1c2586377620bf03a5e91f5bc8742113a00",
      "blockNumber": "0x4",
      "gasUsed": "0x5f5c",
      "effectiveGasPrice": "0x2814cb6e",
      "blobGasPrice": "0x1",
      "from": "0x70997970c51812dc3a010c7d01b50e0d17dc79c8",
      "to": "0x9e8123cd548f36f6e9a806f9a6346cf246e940bd",
      "contractAddress": null,
      "root": "0x21d6b0a1d3c85fbb15ff7ea9a06a789519ab9a249e6ebc3a6962387ded9e2914"
    }
  ],
  "libraries": [],
  "pending": [],
  "returns": {},
  "timestamp": 1743415011,
  "chain": 5777,
  "commit": "290da53"
}