{
  "transactions": [
    {
      "hash": "0xaa7b746dcc867c8bab4e3aba6b30649b85269bbaec96687b58fbe53f3e1d3e56",
      "transactionType": "CALL",
      "contractName": null,
      "contractAddress": "0x5fbdb2315678afecb367f032d93f642f64180aa3",
      "function": "emitCrossChainMessage(bytes)",
      "arguments": [
        "0x48656c6c6f2c204f6e2d436861696e205369676e696e6721"
      ],
      "transaction": {
        "from": "0x70997970c51812dc3a010c7d01b50e0d17dc79c8",
        "to": "0x5fbdb2315678afecb367f032d93f642f64180aa3",
        "gas": "0x86d1",
        "value": "0x16345785d8a0000",
        "input": "0x97fdd0f90000000000000000000000000000000000000000000000000000000000000020000000000000000000000000000000000000000000000000000000000000001848656c6c6f2c204f6e2d436861696e205369676e696e67210000000000000000",
        "nonce": "0x1",
        "chainId": "0x1691"
      },
      "additionalContracts": [],
      "isFixedGasLimit": false
    }
  ],
  "receipts": [
    {
      "status": "0x1",
      "cumulativeGasUsed": "0x619c",
      "logs": [
        {
          "address": "0x5fbdb2315678afecb367f032d93f642f64180aa3",
          "topics": [
            "0x898a694e492e88e6e9dca12a1eecfe36e73cdd6b6a61af22720ba9177b59318e"
          ],
          "data": "0x000000000000000000000000000000000000000000000000000000000000002000000000000000000000000000000000000000000000000000000000000000020000000000000000000000000000000000000000000000000000000000000060000000000000000000000000000000000000000000000000016345785d8a0000000000000000000000000000000000000000000000000000000000000000001848656c6c6f2c204f6e2d436861696e205369676e696e67210000000000000000",
          "blockHash": "0x0615a13cdf33fb00d487416192f169d34106d2538a2c447ecc8832c2a0f9fd9a",
          "blockNumber": "0x3",
          "blockTimestamp": "0x67cf84df",
          "transactionHash": "0xaa7b746dcc867c8bab4e3aba6b30649b85269bbaec96687b58fbe53f3e1d3e56",
          "transactionIndex": "0x0",
          "logIndex": "0x0",
          "removed": false
        }
      ],
      "logsBloom": "0x00000000000000000000000000000000000000000000000000000000000000000000000000000000000000000000000000000000000000000000000000000000000000000000000000000000000000000000000000000000000000000000000400000040000000000000000000000000000000000000000000000000000000000000100000000000000000000000000000000000000000000020000200000000000000000000000000000000000000000000000000000000000000000000000000000040000000000000000000000000000000000000000000000000000000000000000000000000000000000000000000000000000000000000000000000000",
      "type": "0x2",
      "transactionHash": "0xaa7b746dcc867c8bab4e3aba6b30649b85269bbaec96687b58fbe53f3e1d3e56",
      "transactionIndex": "0x0",
      "blockHash": "0x0615a13cdf33fb00d487416192f169d34106d2538a2c447ecc8832c2a0f9fd9a",
      "blockNumber": "0x3",
      "gasUsed": "0x619c",
      "effectiveGasPrice": "0x2dcc957b",
      "blobGasPrice": "0x1",
      "from": "0x70997970c51812dc3a010c7d01b50e0d17dc79c8",
      "to": "0x5fbdb2315678afecb367f032d93f642f64180aa3",
      "contractAddress": null,
      "root": "0x3edf1f07f57d42b973c3c7fa44dd884a5f499b32613ad6aea16df9da4d4a5b67"
    }
  ],
  "libraries": [],
  "pending": [],
  "returns": {},
  "timestamp": 1741653215,
  "chain": 5777,
  "commit": "d82b33a"
}